{
  "_format": "hh-sol-artifact-1",
  "contractName": "YesNoVoting",
  "sourceName": "contracts/Contract.sol",
  "abi": [
    {
      "inputs": [
        {
          "internalType": "string",
          "name": "question",
          "type": "string"
        }
      ],
      "name": "addProposal",
      "outputs": [],
      "stateMutability": "nonpayable",
      "type": "function"
    },
    {
      "inputs": [
        {
          "internalType": "uint256",
          "name": "proposalIndex",
          "type": "uint256"
        }
      ],
      "name": "closeProposal",
      "outputs": [],
      "stateMutability": "nonpayable",
      "type": "function"
    },
    {
      "inputs": [
        {
          "internalType": "uint256",
          "name": "index",
          "type": "uint256"
        }
      ],
      "name": "getProposal",
      "outputs": [
        {
          "internalType": "string",
          "name": "",
          "type": "string"
        },
        {
          "internalType": "uint256",
          "name": "",
          "type": "uint256"
        },
        {
          "internalType": "uint256",
          "name": "",
          "type": "uint256"
        },
        {
          "internalType": "bool",
          "name": "",
          "type": "bool"
        }
      ],
      "stateMutability": "view",
      "type": "function"
    },
    {
      "inputs": [],
      "name": "getProposalCount",
      "outputs": [
        {
          "internalType": "uint256",
          "name": "",
          "type": "uint256"
        }
      ],
      "stateMutability": "view",
      "type": "function"
    },
    {
      "inputs": [
        {
          "internalType": "address",
          "name": "_voter",
          "type": "address"
        }
      ],
      "name": "hasVoted",
      "outputs": [
        {
          "internalType": "bool",
          "name": "",
          "type": "bool"
        }
      ],
      "stateMutability": "view",
      "type": "function"
    },
    {
      "inputs": [
        {
          "internalType": "uint256",
          "name": "",
          "type": "uint256"
        }
      ],
      "name": "proposals",
      "outputs": [
        {
          "internalType": "string",
          "name": "question",
          "type": "string"
        },
        {
          "internalType": "uint256",
          "name": "yesVotes",
          "type": "uint256"
        },
        {
          "internalType": "uint256",
          "name": "noVotes",
          "type": "uint256"
        },
        {
          "internalType": "bool",
          "name": "isOpen",
          "type": "bool"
        }
      ],
      "stateMutability": "view",
      "type": "function"
    },
    {
      "inputs": [],
      "name": "totalVotes",
      "outputs": [
        {
          "internalType": "uint256",
          "name": "",
          "type": "uint256"
        }
      ],
      "stateMutability": "view",
      "type": "function"
    },
    {
      "inputs": [
        {
          "internalType": "uint256",
          "name": "proposalIndex",
          "type": "uint256"
        }
      ],
      "name": "voteNo",
      "outputs": [],
      "stateMutability": "nonpayable",
      "type": "function"
    },
    {
      "inputs": [
        {
          "internalType": "uint256",
          "name": "proposalIndex",
          "type": "uint256"
        }
      ],
      "name": "voteYes",
      "outputs": [],
      "stateMutability": "nonpayable",
      "type": "function"
    },
    {
      "inputs": [
        {
          "internalType": "address",
          "name": "",
          "type": "address"
        }
      ],
      "name": "voters",
      "outputs": [
        {
          "internalType": "bool",
          "name": "",
          "type": "bool"
        }
      ],
      "stateMutability": "view",
      "type": "function"
    }
  ],
  "bytecode": "0x608060405234801561001057600080fd5b506108d5806100206000396000f3fe608060405234801561001057600080fd5b506004361061009e5760003560e01c80632fdae3c5116100665780632fdae3c51461014a5780636a1cf7211461015d578063a3ec138d14610170578063c08cc02d14610193578063c7f758a81461019b57600080fd5b8063013cf08b146100a35780630386a016146100cf57806309eef43e146100e45780630d15fd77146101205780631a6f7be514610137575b600080fd5b6100b66100b13660046106a4565b6101ae565b6040516100c694939291906106bd565b60405180910390f35b6100e26100dd3660046106a4565b61027b565b005b6101106100f2366004610731565b6001600160a01b031660009081526020819052604090205460ff1690565b60405190151581526020016100c6565b61012960025481565b6040519081526020016100c6565b6100e26101453660046106a4565b6102f6565b6100e2610158366004610777565b6103c7565b6100e261016b3660046106a4565b610463565b61011061017e366004610731565b60006020819052908152604090205460ff1681565b600154610129565b6100b66101a93660046106a4565b610512565b600181815481106101be57600080fd5b90600052602060002090600402016000915090508060000180546101e190610828565b80601f016020809104026020016040519081016040528092919081815260200182805461020d90610828565b801561025a5780601f1061022f5761010080835404028352916020019161025a565b820191906000526020600020905b81548152906001019060200180831161023d57829003601f168201915b50505050600183015460028401546003909401549293909290915060ff1684565b600154811061028957600080fd5b6001818154811061029c5761029c610863565b600091825260209091206003600490920201015460ff166102bc57600080fd5b6000600182815481106102d1576102d1610863565b60009182526020909120600490910201600301805460ff191691151591909117905550565b600154811061030457600080fd5b6001818154811061031757610317610863565b600091825260209091206003600490920201015460ff1661033757600080fd5b3360009081526020819052604090205460ff161561035457600080fd5b336000908152602081905260409020805460ff19166001908117909155805481908390811061038557610385610863565b906000526020600020906004020160020160008282546103a59190610879565b925050819055506001600260008282546103bf9190610879565b909155505050565b604080516080810182528281526000602080830182905292820181905260016060830181905280548082018255915281518051929360049092027fb10e2d527612073b26eecdfd717e6a320cf44b4afac2b0732d9fcbe2b7fa0cf60192610431928492019061060b565b5060208201516001820155604082015160028201556060909101516003909101805460ff191691151591909117905550565b600154811061047157600080fd5b6001818154811061048457610484610863565b600091825260209091206003600490920201015460ff166104a457600080fd5b3360009081526020819052604090205460ff16156104c157600080fd5b336000908152602081905260409020805460ff1916600190811790915580548190839081106104f2576104f2610863565b906000526020600020906004020160010160008282546103a59190610879565b60606000806000600180549050851061052a57600080fd5b60006001868154811061053f5761053f610863565b9060005260206000209060040201905080600001816001015482600201548360030160009054906101000a900460ff1683805461057b90610828565b80601f01602080910402602001604051908101604052809291908181526020018280546105a790610828565b80156105f45780601f106105c9576101008083540402835291602001916105f4565b820191906000526020600020905b8154815290600101906020018083116105d757829003601f168201915b505050505093509450945094509450509193509193565b82805461061790610828565b90600052602060002090601f016020900481019282610639576000855561067f565b82601f1061065257805160ff191683800117855561067f565b8280016001018555821561067f579182015b8281111561067f578251825591602001919060010190610664565b5061068b92915061068f565b5090565b5b8082111561068b5760008155600101610690565b6000602082840312156106b657600080fd5b5035919050565b608081526000855180608084015260005b818110156106eb57602081890181015160a08684010152016106ce565b818111156106fd57600060a083860101525b506020830186905260408301859052601f01601f1916820160a0019050610728606083018415159052565b95945050505050565b60006020828403121561074357600080fd5b81356001600160a01b038116811461075a57600080fd5b9392505050565b634e487b7160e01b600052604160045260246000fd5b60006020828403121561078957600080fd5b813567ffffffffffffffff808211156107a157600080fd5b818401915084601f8301126107b557600080fd5b8135818111156107c7576107c7610761565b604051601f8201601f19908116603f011681019083821181831017156107ef576107ef610761565b8160405282815287602084870101111561080857600080fd5b826020860160208301376000928101602001929092525095945050505050565b600181811c9082168061083c57607f821691505b6020821081141561085d57634e487b7160e01b600052602260045260246000fd5b50919050565b634e487b7160e01b600052603260045260246000fd5b6000821982111561089a57634e487b7160e01b600052601160045260246000fd5b50019056fea264697066735822122068957e3833d789494358f81f9fdb054acc98dbc180b78a71e26a0d4dd49e83c364736f6c63430008090033",
  "linkReferences": {},
  "deployedLinkReferences": {}
}